{
  "_format": "hh-sol-artifact-1",
  "contractName": "VendingMachine",
  "sourceName": "contracts/VendingMachine.sol",
  "abi": [
    {
      "inputs": [],
      "stateMutability": "nonpayable",
      "type": "constructor"
    },
    {
      "inputs": [
        {
          "internalType": "address",
          "name": "",
          "type": "address"
        }
      ],
      "name": "donutBalances",
      "outputs": [
        {
          "internalType": "uint256",
          "name": "",
          "type": "uint256"
        }
      ],
      "stateMutability": "view",
      "type": "function"
    },
    {
      "inputs": [],
      "name": "getBalance",
      "outputs": [
        {
          "internalType": "uint256",
          "name": "",
          "type": "uint256"
        }
      ],
      "stateMutability": "view",
      "type": "function"
    },
    {
      "inputs": [],
      "name": "getVendingMachineBalance",
      "outputs": [
        {
          "internalType": "uint256",
          "name": "",
          "type": "uint256"
        }
      ],
      "stateMutability": "view",
      "type": "function"
    },
    {
      "inputs": [],
      "name": "owner",
      "outputs": [
        {
          "internalType": "address",
          "name": "",
          "type": "address"
        }
      ],
      "stateMutability": "view",
      "type": "function"
    },
    {
      "inputs": [
        {
          "internalType": "uint256",
          "name": "amount",
          "type": "uint256"
        }
      ],
      "name": "purchase",
      "outputs": [],
      "stateMutability": "payable",
      "type": "function"
    },
    {
      "inputs": [
        {
          "internalType": "uint256",
          "name": "amount",
          "type": "uint256"
        }
      ],
      "name": "restock",
      "outputs": [],
      "stateMutability": "nonpayable",
      "type": "function"
    },
    {
      "inputs": [],
      "name": "withdraw",
      "outputs": [],
      "stateMutability": "nonpayable",
      "type": "function"
    }
  ],
  "bytecode": "0x608060405234801561001057600080fd5b50336000806101000a81548173ffffffffffffffffffffffffffffffffffffffff021916908373ffffffffffffffffffffffffffffffffffffffff1602179055506064600160003073ffffffffffffffffffffffffffffffffffffffff1673ffffffffffffffffffffffffffffffffffffffff168152602001908152602001600020819055506109e1806100a56000396000f3fe6080604052600436106100705760003560e01c80639a020d8a1161004e5780639a020d8a146100e2578063c21a702a1461011f578063e7644d3414610148578063efef39a11461017357610070565b806312065fe0146100755780633ccfd60b146100a05780638da5cb5b146100b7575b600080fd5b34801561008157600080fd5b5061008a61018f565b6040516100979190610597565b60405180910390f35b3480156100ac57600080fd5b506100b5610197565b005b3480156100c357600080fd5b506100cc61028e565b6040516100d991906105f3565b60405180910390f35b3480156100ee57600080fd5b506101096004803603810190610104919061063f565b6102b2565b6040516101169190610597565b60405180910390f35b34801561012b57600080fd5b5061014660048036038101906101419190610698565b6102ca565b005b34801561015457600080fd5b5061015d6103b1565b60405161016a9190610597565b60405180910390f35b61018d60048036038101906101889190610698565b6103f8565b005b600047905090565b60008054906101000a900473ffffffffffffffffffffffffffffffffffffffff1673ffffffffffffffffffffffffffffffffffffffff163373ffffffffffffffffffffffffffffffffffffffff1614610225576040517f08c379a000000000000000000000000000000000000000000000000000000000815260040161021c90610722565b60405180910390fd5b60008054906101000a900473ffffffffffffffffffffffffffffffffffffffff1673ffffffffffffffffffffffffffffffffffffffff166108fc479081150290604051600060405180830381858888f1935050505015801561028b573d6000803e3d6000fd5b50565b60008054906101000a900473ffffffffffffffffffffffffffffffffffffffff1681565b60016020528060005260406000206000915090505481565b60008054906101000a900473ffffffffffffffffffffffffffffffffffffffff1673ffffffffffffffffffffffffffffffffffffffff163373ffffffffffffffffffffffffffffffffffffffff1614610358576040517f08c379a000000000000000000000000000000000000000000000000000000000815260040161034f9061078e565b60405180910390fd5b80600160003073ffffffffffffffffffffffffffffffffffffffff1673ffffffffffffffffffffffffffffffffffffffff16815260200190815260200160002060008282546103a791906107dd565b9250508190555050565b6000600160003073ffffffffffffffffffffffffffffffffffffffff1673ffffffffffffffffffffffffffffffffffffffff16815260200190815260200160002054905090565b66470de4df8200008161040b9190610811565b34101561044d576040517f08c379a0000000000000000000000000000000000000000000000000000000008152600401610444906108c5565b60405180910390fd5b80600160003073ffffffffffffffffffffffffffffffffffffffff1673ffffffffffffffffffffffffffffffffffffffff1681526020019081526020016000205410156104cf576040517f08c379a00000000000000000000000000000000000000000000000000000000081526004016104c690610957565b60405180910390fd5b80600160003073ffffffffffffffffffffffffffffffffffffffff1673ffffffffffffffffffffffffffffffffffffffff168152602001908152602001600020600082825461051e9190610977565b9250508190555080600160003373ffffffffffffffffffffffffffffffffffffffff1673ffffffffffffffffffffffffffffffffffffffff168152602001908152602001600020600082825461057491906107dd565b9250508190555050565b6000819050919050565b6105918161057e565b82525050565b60006020820190506105ac6000830184610588565b92915050565b600073ffffffffffffffffffffffffffffffffffffffff82169050919050565b60006105dd826105b2565b9050919050565b6105ed816105d2565b82525050565b600060208201905061060860008301846105e4565b92915050565b600080fd5b61061c816105d2565b811461062757600080fd5b50565b60008135905061063981610613565b92915050565b6000602082840312156106555761065461060e565b5b60006106638482850161062a565b91505092915050565b6106758161057e565b811461068057600080fd5b50565b6000813590506106928161066c565b92915050565b6000602082840312156106ae576106ad61060e565b5b60006106bc84828501610683565b91505092915050565b600082825260208201905092915050565b7f4f6e6c7920746865206f776e65722063616e2077697468647261772e00000000600082015250565b600061070c601c836106c5565b9150610717826106d6565b602082019050919050565b6000602082019050818103600083015261073b816106ff565b9050919050565b7f4f6e6c7920746865206f776e65722063616e20726573746f636b2e0000000000600082015250565b6000610778601b836106c5565b915061078382610742565b602082019050919050565b600060208201905081810360008301526107a78161076b565b9050919050565b7f4e487b7100000000000000000000000000000000000000000000000000000000600052601160045260246000fd5b60006107e88261057e565b91506107f38361057e565b925082820190508082111561080b5761080a6107ae565b5b92915050565b600061081c8261057e565b91506108278361057e565b92508282026108358161057e565b9150828204841483151761084c5761084b6107ae565b5b5092915050565b7f596f75206d75737420706179206174206c6561737420302e3032204d4154494360008201527f2070657220646f6e757400000000000000000000000000000000000000000000602082015250565b60006108af602a836106c5565b91506108ba82610853565b604082019050919050565b600060208201905081810360008301526108de816108a2565b9050919050565b7f4e6f7420656e6f75676820646f6e75747320696e2073746f636b20746f20636f60008201527f6d706c6574652074686973207075726368617365000000000000000000000000602082015250565b60006109416034836106c5565b915061094c826108e5565b604082019050919050565b6000602082019050818103600083015261097081610934565b9050919050565b60006109828261057e565b915061098d8361057e565b92508282039050818111156109a5576109a46107ae565b5b9291505056fea2646970667358221220278e819b1671806f4c888a695d2e438628bbd0dc1b44c713f12843b0927b6fc664736f6c63430008180033",
  "linkReferences": {},
  "deployedLinkReferences": {}
}